{
  "contractName": "Giveaways",
  "abi": [
    {
      "anonymous": false,
      "inputs": [
        {
          "indexed": true,
          "internalType": "address",
          "name": "previousOwner",
          "type": "address"
        },
        {
          "indexed": true,
          "internalType": "address",
          "name": "newOwner",
          "type": "address"
        }
      ],
      "name": "OwnershipTransferred",
      "type": "event"
    },
    {
      "inputs": [
        {
          "internalType": "bytes24",
          "name": "",
          "type": "bytes24"
        }
      ],
      "name": "giveaways",
      "outputs": [
        {
          "internalType": "bytes24",
          "name": "id",
          "type": "bytes24"
        },
        {
          "internalType": "uint256",
          "name": "startTime",
          "type": "uint256"
        },
        {
          "internalType": "uint256",
          "name": "endTime",
          "type": "uint256"
        },
        {
          "internalType": "uint8",
          "name": "nWinners",
          "type": "uint8"
        }
      ],
      "stateMutability": "view",
      "type": "function",
      "constant": true
    },
    {
      "inputs": [],
      "name": "owner",
      "outputs": [
        {
          "internalType": "address",
          "name": "",
          "type": "address"
        }
      ],
      "stateMutability": "view",
      "type": "function",
      "constant": true
    },
    {
      "inputs": [],
      "name": "renounceOwnership",
      "outputs": [],
      "stateMutability": "nonpayable",
      "type": "function"
    },
    {
      "inputs": [
        {
          "internalType": "address",
          "name": "newOwner",
          "type": "address"
        }
      ],
      "name": "transferOwnership",
      "outputs": [],
      "stateMutability": "nonpayable",
      "type": "function"
    },
    {
      "inputs": [
        {
          "internalType": "bytes24",
          "name": "id",
          "type": "bytes24"
        },
        {
          "internalType": "uint256",
          "name": "startTime",
          "type": "uint256"
        },
        {
          "internalType": "uint256",
          "name": "endTime",
          "type": "uint256"
        },
        {
          "internalType": "uint8",
          "name": "nWinners",
          "type": "uint8"
        }
      ],
      "name": "createGiveaway",
      "outputs": [],
      "stateMutability": "nonpayable",
      "type": "function"
    },
    {
      "inputs": [
        {
          "internalType": "bytes24",
          "name": "giveawayId",
          "type": "bytes24"
        },
        {
          "internalType": "address",
          "name": "participantAddress",
          "type": "address"
        }
      ],
      "name": "addParticipant",
      "outputs": [],
      "stateMutability": "nonpayable",
      "type": "function"
    },
    {
      "inputs": [
        {
          "internalType": "bytes24",
          "name": "id",
          "type": "bytes24"
        }
      ],
      "name": "generateWinners",
      "outputs": [],
      "stateMutability": "nonpayable",
      "type": "function"
    },
    {
      "inputs": [
        {
          "internalType": "bytes24",
          "name": "id",
          "type": "bytes24"
        }
      ],
      "name": "getParticipants",
      "outputs": [
        {
          "internalType": "address[]",
          "name": "",
          "type": "address[]"
        }
      ],
      "stateMutability": "view",
      "type": "function",
      "constant": true
    },
    {
      "inputs": [
        {
          "internalType": "bytes24",
          "name": "id",
          "type": "bytes24"
        }
      ],
      "name": "getWinners",
      "outputs": [
        {
          "internalType": "address[]",
          "name": "",
          "type": "address[]"
        }
      ],
      "stateMutability": "view",
      "type": "function",
      "constant": true
    }
  ],
  "bytecode": "0x608060405234801561001057600080fd5b5061002d61002261003260201b60201c565b61003a60201b60201c565b6100fe565b600033905090565b60008060009054906101000a900473ffffffffffffffffffffffffffffffffffffffff169050816000806101000a81548173ffffffffffffffffffffffffffffffffffffffff021916908373ffffffffffffffffffffffffffffffffffffffff1602179055508173ffffffffffffffffffffffffffffffffffffffff168173ffffffffffffffffffffffffffffffffffffffff167f8be0079c531659141344cd1fd0a4f28419497f9722a3daafe3b4186f6b6457e060405160405180910390a35050565b61198b8061010d6000396000f3fe608060405234801561001057600080fd5b50600436106100925760003560e01c8063715018a611610066578063715018a61461011b5780638da5cb5b146101255780639870cc5114610143578063ed585f6414610176578063f2fde38b146101a657610092565b8062b3bc57146100975780633c4288fe146100b35780633ca91922146100e3578063580d0f3e146100ff575b600080fd5b6100b160048036038101906100ac9190611065565b6101c2565b005b6100cd60048036038101906100c89190611065565b610676565b6040516100da91906114fd565b60405180910390f35b6100fd60048036038101906100f8919061108e565b6107c6565b005b610119600480360381019061011491906110ca565b610a25565b005b610123610b58565b005b61012d610b6c565b60405161013a91906114e2565b60405180910390f35b61015d60048036038101906101589190611065565b610b95565b60405161016d949392919061151f565b60405180910390f35b610190600480360381019061018b9190611065565b610bdf565b60405161019d91906114fd565b60405180910390f35b6101c060048036038101906101bb919061103c565b610d2f565b005b6101ca610db3565b6000600160008367ffffffffffffffff191667ffffffffffffffff191681526020019081526020016000209050428160020154111561023e576040517f08c379a000000000000000000000000000000000000000000000000000000000815260040161023590611644565b60405180910390fd5b4281600301541115610285576040517f08c379a000000000000000000000000000000000000000000000000000000000815260040161027c906115c4565b60405180910390fd5b8060050160009054906101000a900460ff1660ff16816001018054905010156102e3576040517f08c379a00000000000000000000000000000000000000000000000000000000081526004016102da90611604565b60405180910390fd5b6000816001018054905067ffffffffffffffff81111561032c577f4e487b7100000000000000000000000000000000000000000000000000000000600052604160045260246000fd5b60405190808252806020026020018201604052801561035a5781602001602082028036833780820191505090505b5090506000805b83600101805490508161ffff16101561047757836001018161ffff16815481106103b4577f4e487b7100000000000000000000000000000000000000000000000000000000600052603260045260246000fd5b9060005260206000200160009054906101000a900473ffffffffffffffffffffffffffffffffffffffff16838361ffff168151811061041c577f4e487b7100000000000000000000000000000000000000000000000000000000600052603260045260246000fd5b602002602001019073ffffffffffffffffffffffffffffffffffffffff16908173ffffffffffffffffffffffffffffffffffffffff1681525050818061046190611799565b925050808061046f90611799565b915050610361565b5060005b8360050160009054906101000a900460ff1660ff168160ff16101561066f5760008261ffff166001436104ae91906116ae565b4042846040516020016104c3939291906114a5565b6040516020818303038152906040528051906020012060001c6104e6919061185d565b905084600401848261ffff1681518110610529577f4e487b7100000000000000000000000000000000000000000000000000000000600052603260045260246000fd5b60200260200101519080600181540180825580915050600190039060005260206000200160009091909190916101000a81548173ffffffffffffffffffffffffffffffffffffffff021916908373ffffffffffffffffffffffffffffffffffffffff160217905550828061059c9061176f565b935050838361ffff16815181106105dc577f4e487b7100000000000000000000000000000000000000000000000000000000600052603260045260246000fd5b6020026020010151848261ffff1681518110610621577f4e487b7100000000000000000000000000000000000000000000000000000000600052603260045260246000fd5b602002602001019073ffffffffffffffffffffffffffffffffffffffff16908173ffffffffffffffffffffffffffffffffffffffff16815250505080806106679061180d565b91505061047b565b5050505050565b6060600060401b67ffffffffffffffff1916600160008467ffffffffffffffff191667ffffffffffffffff1916815260200190815260200160002060000160009054906101000a900460401b67ffffffffffffffff1916141561070e576040517f08c379a0000000000000000000000000000000000000000000000000000000008152600401610705906115a4565b60405180910390fd5b600160008367ffffffffffffffff191667ffffffffffffffff191681526020019081526020016000206001018054806020026020016040519081016040528092919081815260200182805480156107ba57602002820191906000526020600020905b8160009054906101000a900473ffffffffffffffffffffffffffffffffffffffff1673ffffffffffffffffffffffffffffffffffffffff1681526020019060010190808311610770575b50505050509050919050565b6107ce610db3565b6000600160008467ffffffffffffffff191667ffffffffffffffff191681526020019081526020016000209050600060401b67ffffffffffffffff19168160000160009054906101000a900460401b67ffffffffffffffff19161415610869576040517f08c379a0000000000000000000000000000000000000000000000000000000008152600401610860906115a4565b60405180910390fd5b80600201544210158015610881575080600301544211155b6108c0576040517f08c379a00000000000000000000000000000000000000000000000000000000081526004016108b790611624565b60405180910390fd5b60005b81600101805490508110156109ba578273ffffffffffffffffffffffffffffffffffffffff16826001018281548110610925577f4e487b7100000000000000000000000000000000000000000000000000000000600052603260045260246000fd5b9060005260206000200160009054906101000a900473ffffffffffffffffffffffffffffffffffffffff1673ffffffffffffffffffffffffffffffffffffffff1614156109a7576040517f08c379a000000000000000000000000000000000000000000000000000000000815260040161099e90611584565b60405180910390fd5b80806109b2906117c4565b9150506108c3565b5080600101829080600181540180825580915050600190039060005260206000200160009091909190916101000a81548173ffffffffffffffffffffffffffffffffffffffff021916908373ffffffffffffffffffffffffffffffffffffffff160217905550505050565b610a2d610db3565b610a35610efd565b84816000019067ffffffffffffffff1916908167ffffffffffffffff1916815250508381604001818152505082816060018181525050818160a0019060ff16908160ff168152505080600160008767ffffffffffffffff191667ffffffffffffffff1916815260200190815260200160002060008201518160000160006101000a81548177ffffffffffffffffffffffffffffffffffffffffffffffff021916908360401c02179055506020820151816001019080519060200190610afb929190610f41565b5060408201518160020155606082015181600301556080820151816004019080519060200190610b2c929190610f41565b5060a08201518160050160006101000a81548160ff021916908360ff1602179055509050505050505050565b610b60610db3565b610b6a6000610e31565b565b60008060009054906101000a900473ffffffffffffffffffffffffffffffffffffffff16905090565b60016020528060005260406000206000915090508060000160009054906101000a900460401b908060020154908060030154908060050160009054906101000a900460ff16905084565b6060600060401b67ffffffffffffffff1916600160008467ffffffffffffffff191667ffffffffffffffff1916815260200190815260200160002060000160009054906101000a900460401b67ffffffffffffffff19161415610c77576040517f08c379a0000000000000000000000000000000000000000000000000000000008152600401610c6e906115a4565b60405180910390fd5b600160008367ffffffffffffffff191667ffffffffffffffff19168152602001908152602001600020600401805480602002602001604051908101604052809291908181526020018280548015610d2357602002820191906000526020600020905b8160009054906101000a900473ffffffffffffffffffffffffffffffffffffffff1673ffffffffffffffffffffffffffffffffffffffff1681526020019060010190808311610cd9575b50505050509050919050565b610d37610db3565b600073ffffffffffffffffffffffffffffffffffffffff168173ffffffffffffffffffffffffffffffffffffffff161415610da7576040517f08c379a0000000000000000000000000000000000000000000000000000000008152600401610d9e90611564565b60405180910390fd5b610db081610e31565b50565b610dbb610ef5565b73ffffffffffffffffffffffffffffffffffffffff16610dd9610b6c565b73ffffffffffffffffffffffffffffffffffffffff1614610e2f576040517f08c379a0000000000000000000000000000000000000000000000000000000008152600401610e26906115e4565b60405180910390fd5b565b60008060009054906101000a900473ffffffffffffffffffffffffffffffffffffffff169050816000806101000a81548173ffffffffffffffffffffffffffffffffffffffff021916908373ffffffffffffffffffffffffffffffffffffffff1602179055508173ffffffffffffffffffffffffffffffffffffffff168173ffffffffffffffffffffffffffffffffffffffff167f8be0079c531659141344cd1fd0a4f28419497f9722a3daafe3b4186f6b6457e060405160405180910390a35050565b600033905090565b6040518060c00160405280600067ffffffffffffffff1916815260200160608152602001600081526020016000815260200160608152602001600060ff1681525090565b828054828255906000526020600020908101928215610fba579160200282015b82811115610fb95782518260006101000a81548173ffffffffffffffffffffffffffffffffffffffff021916908373ffffffffffffffffffffffffffffffffffffffff16021790555091602001919060010190610f61565b5b509050610fc79190610fcb565b5090565b5b80821115610fe4576000816000905550600101610fcc565b5090565b600081359050610ff7816118f9565b92915050565b60008135905061100c81611910565b92915050565b60008135905061102181611927565b92915050565b6000813590506110368161193e565b92915050565b60006020828403121561104e57600080fd5b600061105c84828501610fe8565b91505092915050565b60006020828403121561107757600080fd5b600061108584828501610ffd565b91505092915050565b600080604083850312156110a157600080fd5b60006110af85828601610ffd565b92505060206110c085828601610fe8565b9150509250929050565b600080600080608085870312156110e057600080fd5b60006110ee87828801610ffd565b94505060206110ff87828801611012565b935050604061111087828801611012565b925050606061112187828801611027565b91505092959194509250565b60006111398383611145565b60208301905092915050565b61114e816116e2565b82525050565b61115d816116e2565b82525050565b600061116e82611674565b611178818561168c565b935061118383611664565b8060005b838110156111b457815161119b888261112d565b97506111a68361167f565b925050600181019050611187565b5085935050505092915050565b6111ca816116f4565b82525050565b6111e16111dc82611720565b611837565b82525050565b60006111f460268361169d565b91507f4f776e61626c653a206e6577206f776e657220697320746865207a65726f206160008301527f64647265737300000000000000000000000000000000000000000000000000006020830152604082019050919050565b600061125a60248361169d565b91507f5061727469636970616e742068617320616c726561647920706172746963697060008301527f61746564000000000000000000000000000000000000000000000000000000006020830152604082019050919050565b60006112c060178361169d565b91507f476976656177617920646f6573206e6f742065786973740000000000000000006000830152602082019050919050565b600061130060198361169d565b91507f4769766561776179206861736e277420656e64656420796574000000000000006000830152602082019050919050565b600061134060208361169d565b91507f4f776e61626c653a2063616c6c6572206973206e6f7420746865206f776e65726000830152602082019050919050565b6000611380602a8361169d565b91507f4e6f7420656e6f756768207061727469636970616e747320746f2063686f6f7360008301527f6520612077696e6e6572000000000000000000000000000000000000000000006020830152604082019050919050565b60006113e660168361169d565b91507f4769766561776179206973206e6f7420616374697665000000000000000000006000830152602082019050919050565b6000611426601b8361169d565b91507f4769766561776179206861736e277420737461727465642079657400000000006000830152602082019050919050565b61146281611758565b82525050565b61147961147482611758565b611841565b82525050565b61148881611762565b82525050565b61149f61149a82611762565b61184b565b82525050565b60006114b182866111d0565b6020820191506114c18285611468565b6020820191506114d1828461148e565b600182019150819050949350505050565b60006020820190506114f76000830184611154565b92915050565b600060208201905081810360008301526115178184611163565b905092915050565b600060808201905061153460008301876111c1565b6115416020830186611459565b61154e6040830185611459565b61155b606083018461147f565b95945050505050565b6000602082019050818103600083015261157d816111e7565b9050919050565b6000602082019050818103600083015261159d8161124d565b9050919050565b600060208201905081810360008301526115bd816112b3565b9050919050565b600060208201905081810360008301526115dd816112f3565b9050919050565b600060208201905081810360008301526115fd81611333565b9050919050565b6000602082019050818103600083015261161d81611373565b9050919050565b6000602082019050818103600083015261163d816113d9565b9050919050565b6000602082019050818103600083015261165d81611419565b9050919050565b6000819050602082019050919050565b600081519050919050565b6000602082019050919050565b600082825260208201905092915050565b600082825260208201905092915050565b60006116b982611758565b91506116c483611758565b9250828210156116d7576116d661188e565b5b828203905092915050565b60006116ed82611738565b9050919050565b60007fffffffffffffffffffffffffffffffffffffffffffffffff000000000000000082169050919050565b6000819050919050565b600061ffff82169050919050565b600073ffffffffffffffffffffffffffffffffffffffff82169050919050565b6000819050919050565b600060ff82169050919050565b600061177a8261172a565b9150600082141561178e5761178d61188e565b5b600182039050919050565b60006117a48261172a565b915061ffff8214156117b9576117b861188e565b5b600182019050919050565b60006117cf82611758565b91507fffffffffffffffffffffffffffffffffffffffffffffffffffffffffffffffff8214156118025761180161188e565b5b600182019050919050565b600061181882611762565b915060ff82141561182c5761182b61188e565b5b600182019050919050565b6000819050919050565b6000819050919050565b6000611856826118ec565b9050919050565b600061186882611758565b915061187383611758565b925082611883576118826118bd565b5b828206905092915050565b7f4e487b7100000000000000000000000000000000000000000000000000000000600052601160045260246000fd5b7f4e487b7100000000000000000000000000000000000000000000000000000000600052601260045260246000fd5b60008160f81b9050919050565b611902816116e2565b811461190d57600080fd5b50565b611919816116f4565b811461192457600080fd5b50565b61193081611758565b811461193b57600080fd5b50565b61194781611762565b811461195257600080fd5b5056fea2646970667358221220bf266196450ed9cca37681157f8e3e50a730b262eef5db0bb74d912b39bbb0f864736f6c63430008000033",
  "immutableReferences": {},
  "source": "// SPDX-License-Identifier: MIT\npragma solidity >=0.8.0;\n\nimport \"@openzeppelin/contracts/access/Ownable.sol\";\n\ncontract Giveaways is Ownable {\n  struct Giveaway {\n    bytes24 id;\n    address[] participants;\n    uint256 startTime;\n    uint256 endTime;\n    address[] winners;\n    uint8 nWinners;\n  }\n\n  mapping(bytes24 => Giveaway) public giveaways;\n\n  function createGiveaway(bytes24 id, uint256 startTime, uint256 endTime, uint8 nWinners) public onlyOwner {\n    Giveaway memory giveaway;\n    giveaway.id = id;\n    giveaway.startTime = startTime;\n    giveaway.endTime = endTime;\n    giveaway.nWinners = nWinners;\n    giveaways[id] = giveaway;\n  }\n\n  function addParticipant(bytes24 giveawayId, address participantAddress) public onlyOwner {\n    Giveaway storage giveaway = giveaways[giveawayId];\n        \n    require(giveaway.id != bytes24(0), \"Giveaway does not exist\");\n    require(block.timestamp >= giveaway.startTime && block.timestamp <= giveaway.endTime, \"Giveaway is not active\");\n        \n    // Check if the participant has already participated\n    for (uint i = 0; i < giveaway.participants.length; i++) {\n      if (giveaway.participants[i] == participantAddress) {\n        revert(\"Participant has already participated\");\n      }\n    }\n        \n    // Add the participant to the participants array\n    giveaway.participants.push(participantAddress);\n  }\n\n  function generateWinners(bytes24 id) public onlyOwner {\n    Giveaway storage giveaway = giveaways[id];\n\n    require(giveaway.startTime <= block.timestamp, \"Giveaway hasn't started yet\");\n    require(giveaway.endTime <= block.timestamp, \"Giveaway hasn't ended yet\");\n    require(giveaway.participants.length >= giveaway.nWinners, \"Not enough participants to choose a winner\");\n        \n    address[] memory eligibleParticipants = new address[](giveaway.participants.length);\n    uint16 numberOfEligibleParticipants = 0;\n\n    // add participants to eligible participants list\n    for (uint16 i = 0; i < giveaway.participants.length; i++) {\n      eligibleParticipants[numberOfEligibleParticipants] = giveaway.participants[i];\n      numberOfEligibleParticipants++;\n    }\n\n    // generate winners for eligible participants\n    for (uint8 i = 0; i < giveaway.nWinners; i++) {\n      uint16 randomIndex = uint16(uint256(keccak256(abi.encodePacked(blockhash(block.number - 1), block.timestamp, i))) % numberOfEligibleParticipants);\n      giveaway.winners.push(eligibleParticipants[randomIndex]);\n            \n      // remove winner from eligible participants array\n      numberOfEligibleParticipants--;\n      eligibleParticipants[randomIndex] = eligibleParticipants[numberOfEligibleParticipants];\n    }\n  }\n\n  function getParticipants(bytes24 id) public view returns (address[] memory) {\n    require(giveaways[id].id != bytes24(0), \"Giveaway does not exist\");\n    return giveaways[id].participants;\n  }\n\n  function getWinners(bytes24 id) public view returns (address[] memory) {\n    require(giveaways[id].id != bytes24(0), \"Giveaway does not exist\");\n    return giveaways[id].winners;\n  }\n}\n",
  "sourcePath": "/Users/marcia/Documents/web3-roulette/packages/truffle-app/contracts/Giveaways.sol",
  "compiler": {
    "name": "solc",
    "version": "0.8.0+commit.c7dfd78e.Emscripten.clang"
  },
  "schemaVersion": "3.4.13",
  "updatedAt": "2023-05-08T10:21:58.372Z",
  "networkType": "ethereum",
  "devdoc": {
    "kind": "dev",
    "methods": {
      "owner()": {
        "details": "Returns the address of the current owner."
      },
      "renounceOwnership()": {
        "details": "Leaves the contract without owner. It will not be possible to call `onlyOwner` functions anymore. Can only be called by the current owner. NOTE: Renouncing ownership will leave the contract without an owner, thereby removing any functionality that is only available to the owner."
      },
      "transferOwnership(address)": {
        "details": "Transfers ownership of the contract to a new account (`newOwner`). Can only be called by the current owner."
      }
    },
    "version": 1
  },
  "userdoc": {
    "kind": "user",
    "methods": {},
    "version": 1
  }
}