{
  "contractName": "Giveaways",
  "abi": [
    {
      "anonymous": false,
      "inputs": [
        {
          "indexed": true,
          "internalType": "address",
          "name": "previousOwner",
          "type": "address"
        },
        {
          "indexed": true,
          "internalType": "address",
          "name": "newOwner",
          "type": "address"
        }
      ],
      "name": "OwnershipTransferred",
      "type": "event"
    },
    {
      "inputs": [
        {
          "internalType": "bytes24",
          "name": "",
          "type": "bytes24"
        }
      ],
      "name": "giveaways",
      "outputs": [
        {
          "internalType": "bytes24",
          "name": "id",
          "type": "bytes24"
        },
        {
          "internalType": "uint256",
          "name": "startTime",
          "type": "uint256"
        },
        {
          "internalType": "uint256",
          "name": "endTime",
          "type": "uint256"
        },
        {
          "internalType": "uint8",
          "name": "nWinners",
          "type": "uint8"
        }
      ],
      "stateMutability": "view",
      "type": "function"
    },
    {
      "inputs": [],
      "name": "owner",
      "outputs": [
        {
          "internalType": "address",
          "name": "",
          "type": "address"
        }
      ],
      "stateMutability": "view",
      "type": "function"
    },
    {
      "inputs": [],
      "name": "renounceOwnership",
      "outputs": [],
      "stateMutability": "nonpayable",
      "type": "function"
    },
    {
      "inputs": [
        {
          "internalType": "address",
          "name": "newOwner",
          "type": "address"
        }
      ],
      "name": "transferOwnership",
      "outputs": [],
      "stateMutability": "nonpayable",
      "type": "function"
    },
    {
      "inputs": [
        {
          "internalType": "bytes24",
          "name": "id",
          "type": "bytes24"
        },
        {
          "internalType": "address[]",
          "name": "whitelist",
          "type": "address[]"
        },
        {
          "internalType": "uint256",
          "name": "startTime",
          "type": "uint256"
        },
        {
          "internalType": "uint256",
          "name": "endTime",
          "type": "uint256"
        },
        {
          "internalType": "uint8",
          "name": "nWinners",
          "type": "uint8"
        }
      ],
      "name": "createGiveaway",
      "outputs": [],
      "stateMutability": "nonpayable",
      "type": "function"
    },
    {
      "inputs": [
        {
          "internalType": "bytes24",
          "name": "giveawayId",
          "type": "bytes24"
        },
        {
          "internalType": "address",
          "name": "participantAddress",
          "type": "address"
        }
      ],
      "name": "addParticipant",
      "outputs": [],
      "stateMutability": "nonpayable",
      "type": "function"
    },
    {
      "inputs": [
        {
          "internalType": "bytes24",
          "name": "id",
          "type": "bytes24"
        }
      ],
      "name": "generateWinners",
      "outputs": [],
      "stateMutability": "nonpayable",
      "type": "function"
    },
    {
      "inputs": [
        {
          "internalType": "bytes24",
          "name": "id",
          "type": "bytes24"
        }
      ],
      "name": "getParticipants",
      "outputs": [
        {
          "internalType": "address[]",
          "name": "",
          "type": "address[]"
        }
      ],
      "stateMutability": "view",
      "type": "function"
    },
    {
      "inputs": [
        {
          "internalType": "bytes24",
          "name": "id",
          "type": "bytes24"
        }
      ],
      "name": "getWhitelist",
      "outputs": [
        {
          "internalType": "address[]",
          "name": "",
          "type": "address[]"
        }
      ],
      "stateMutability": "view",
      "type": "function"
    },
    {
      "inputs": [
        {
          "internalType": "bytes24",
          "name": "id",
          "type": "bytes24"
        }
      ],
      "name": "getWinners",
      "outputs": [
        {
          "internalType": "address[]",
          "name": "",
          "type": "address[]"
        }
      ],
      "stateMutability": "view",
      "type": "function"
    }
  ],
  "bytecode": "0x608060405234801561001057600080fd5b5061002d61002261003260201b60201c565b61003a60201b60201c565b6100fe565b600033905090565b60008060009054906101000a900473ffffffffffffffffffffffffffffffffffffffff169050816000806101000a81548173ffffffffffffffffffffffffffffffffffffffff021916908373ffffffffffffffffffffffffffffffffffffffff1602179055508173ffffffffffffffffffffffffffffffffffffffff168173ffffffffffffffffffffffffffffffffffffffff167f8be0079c531659141344cd1fd0a4f28419497f9722a3daafe3b4186f6b6457e060405160405180910390a35050565b611e158061010d6000396000f3fe608060405234801561001057600080fd5b506004361061009d5760003560e01c8063898e0cfa11610066578063898e0cfa146101305780638da5cb5b146101605780639870cc511461017e578063ed585f64146101b1578063f2fde38b146101e15761009d565b8062b3bc57146100a257806308fe0de2146100be5780633c4288fe146100da5780633ca919221461010a578063715018a614610126575b600080fd5b6100bc60048036038101906100b791906113d7565b6101fd565b005b6100d860048036038101906100d3919061143c565b6106b1565b005b6100f460048036038101906100ef91906113d7565b61080b565b60405161010191906118db565b60405180910390f35b610124600480360381019061011f9190611400565b610963565b005b61012e610ccd565b005b61014a600480360381019061014591906113d7565b610ce1565b60405161015791906118db565b60405180910390f35b610168610e39565b60405161017591906118c0565b60405180910390f35b610198600480360381019061019391906113d7565b610e62565b6040516101a894939291906118fd565b60405180910390f35b6101cb60048036038101906101c691906113d7565b610eac565b6040516101d891906118db565b60405180910390f35b6101fb60048036038101906101f691906113ae565b611004565b005b610205611088565b6000600160008367ffffffffffffffff191667ffffffffffffffff1916815260200190815260200160002090504281600301541115610279576040517f08c379a000000000000000000000000000000000000000000000000000000000815260040161027090611a22565b60405180910390fd5b42816004015411156102c0576040517f08c379a00000000000000000000000000000000000000000000000000000000081526004016102b7906119a2565b60405180910390fd5b8060060160009054906101000a900460ff1660ff168160020180549050101561031e576040517f08c379a0000000000000000000000000000000000000000000000000000000008152600401610315906119e2565b60405180910390fd5b6000816002018054905067ffffffffffffffff811115610367577f4e487b7100000000000000000000000000000000000000000000000000000000600052604160045260246000fd5b6040519080825280602002602001820160405280156103955781602001602082028036833780820191505090505b5090506000805b83600201805490508161ffff1610156104b257836002018161ffff16815481106103ef577f4e487b7100000000000000000000000000000000000000000000000000000000600052603260045260246000fd5b9060005260206000200160009054906101000a900473ffffffffffffffffffffffffffffffffffffffff16838361ffff1681518110610457577f4e487b7100000000000000000000000000000000000000000000000000000000600052603260045260246000fd5b602002602001019073ffffffffffffffffffffffffffffffffffffffff16908173ffffffffffffffffffffffffffffffffffffffff1681525050818061049c90611bf4565b92505080806104aa90611bf4565b91505061039c565b5060005b8360060160009054906101000a900460ff1660ff168160ff1610156106aa5760008261ffff166001436104e99190611b09565b4042846040516020016104fe93929190611883565b6040516020818303038152906040528051906020012060001c6105219190611cb8565b905084600501848261ffff1681518110610564577f4e487b7100000000000000000000000000000000000000000000000000000000600052603260045260246000fd5b60200260200101519080600181540180825580915050600190039060005260206000200160009091909190916101000a81548173ffffffffffffffffffffffffffffffffffffffff021916908373ffffffffffffffffffffffffffffffffffffffff16021790555082806105d790611bca565b935050838361ffff1681518110610617577f4e487b7100000000000000000000000000000000000000000000000000000000600052603260045260246000fd5b6020026020010151848261ffff168151811061065c577f4e487b7100000000000000000000000000000000000000000000000000000000600052603260045260246000fd5b602002602001019073ffffffffffffffffffffffffffffffffffffffff16908173ffffffffffffffffffffffffffffffffffffffff16815250505080806106a290611c68565b9150506104b6565b5050505050565b6106b9611088565b6106c16111d2565b85816000019067ffffffffffffffff1916908167ffffffffffffffff1916815250508481602001819052508381606001818152505082816080018181525050818160c0019060ff16908160ff168152505080600160008867ffffffffffffffff191667ffffffffffffffff1916815260200190815260200160002060008201518160000160006101000a81548177ffffffffffffffffffffffffffffffffffffffffffffffff021916908360401c0217905550602082015181600101908051906020019061079092919061121d565b5060408201518160020190805190602001906107ad92919061121d565b50606082015181600301556080820151816004015560a08201518160050190805190602001906107de92919061121d565b5060c08201518160060160006101000a81548160ff021916908360ff160217905550905050505050505050565b6060610815611088565b600060401b67ffffffffffffffff1916600160008467ffffffffffffffff191667ffffffffffffffff1916815260200190815260200160002060000160009054906101000a900460401b67ffffffffffffffff191614156108ab576040517f08c379a00000000000000000000000000000000000000000000000000000000081526004016108a290611982565b60405180910390fd5b600160008367ffffffffffffffff191667ffffffffffffffff1916815260200190815260200160002060020180548060200260200160405190810160405280929190818152602001828054801561095757602002820191906000526020600020905b8160009054906101000a900473ffffffffffffffffffffffffffffffffffffffff1673ffffffffffffffffffffffffffffffffffffffff168152602001906001019080831161090d575b50505050509050919050565b61096b611088565b6000600160008467ffffffffffffffff191667ffffffffffffffff191681526020019081526020016000209050600060401b67ffffffffffffffff19168160000160009054906101000a900460401b67ffffffffffffffff19161415610a06576040517f08c379a00000000000000000000000000000000000000000000000000000000081526004016109fd90611982565b60405180910390fd5b80600301544210158015610a1e575080600401544211155b610a5d576040517f08c379a0000000000000000000000000000000000000000000000000000000008152600401610a5490611a02565b60405180910390fd5b6000805b8260010180549050811015610b26578373ffffffffffffffffffffffffffffffffffffffff16836001018281548110610ac3577f4e487b7100000000000000000000000000000000000000000000000000000000600052603260045260246000fd5b9060005260206000200160009054906101000a900473ffffffffffffffffffffffffffffffffffffffff1673ffffffffffffffffffffffffffffffffffffffff161415610b135760019150610b26565b8080610b1e90611c1f565b915050610a61565b5080610b67576040517f08c379a0000000000000000000000000000000000000000000000000000000008152600401610b5e90611a42565b60405180910390fd5b60005b8260020180549050811015610c61578373ffffffffffffffffffffffffffffffffffffffff16836002018281548110610bcc577f4e487b7100000000000000000000000000000000000000000000000000000000600052603260045260246000fd5b9060005260206000200160009054906101000a900473ffffffffffffffffffffffffffffffffffffffff1673ffffffffffffffffffffffffffffffffffffffff161415610c4e576040517f08c379a0000000000000000000000000000000000000000000000000000000008152600401610c4590611962565b60405180910390fd5b8080610c5990611c1f565b915050610b6a565b5081600201839080600181540180825580915050600190039060005260206000200160009091909190916101000a81548173ffffffffffffffffffffffffffffffffffffffff021916908373ffffffffffffffffffffffffffffffffffffffff16021790555050505050565b610cd5611088565b610cdf6000611106565b565b6060610ceb611088565b600060401b67ffffffffffffffff1916600160008467ffffffffffffffff191667ffffffffffffffff1916815260200190815260200160002060000160009054906101000a900460401b67ffffffffffffffff19161415610d81576040517f08c379a0000000000000000000000000000000000000000000000000000000008152600401610d7890611982565b60405180910390fd5b600160008367ffffffffffffffff191667ffffffffffffffff19168152602001908152602001600020600101805480602002602001604051908101604052809291908181526020018280548015610e2d57602002820191906000526020600020905b8160009054906101000a900473ffffffffffffffffffffffffffffffffffffffff1673ffffffffffffffffffffffffffffffffffffffff1681526020019060010190808311610de3575b50505050509050919050565b60008060009054906101000a900473ffffffffffffffffffffffffffffffffffffffff16905090565b60016020528060005260406000206000915090508060000160009054906101000a900460401b908060030154908060040154908060060160009054906101000a900460ff16905084565b6060610eb6611088565b600060401b67ffffffffffffffff1916600160008467ffffffffffffffff191667ffffffffffffffff1916815260200190815260200160002060000160009054906101000a900460401b67ffffffffffffffff19161415610f4c576040517f08c379a0000000000000000000000000000000000000000000000000000000008152600401610f4390611982565b60405180910390fd5b600160008367ffffffffffffffff191667ffffffffffffffff19168152602001908152602001600020600501805480602002602001604051908101604052809291908181526020018280548015610ff857602002820191906000526020600020905b8160009054906101000a900473ffffffffffffffffffffffffffffffffffffffff1673ffffffffffffffffffffffffffffffffffffffff1681526020019060010190808311610fae575b50505050509050919050565b61100c611088565b600073ffffffffffffffffffffffffffffffffffffffff168173ffffffffffffffffffffffffffffffffffffffff16141561107c576040517f08c379a000000000000000000000000000000000000000000000000000000000815260040161107390611942565b60405180910390fd5b61108581611106565b50565b6110906111ca565b73ffffffffffffffffffffffffffffffffffffffff166110ae610e39565b73ffffffffffffffffffffffffffffffffffffffff1614611104576040517f08c379a00000000000000000000000000000000000000000000000000000000081526004016110fb906119c2565b60405180910390fd5b565b60008060009054906101000a900473ffffffffffffffffffffffffffffffffffffffff169050816000806101000a81548173ffffffffffffffffffffffffffffffffffffffff021916908373ffffffffffffffffffffffffffffffffffffffff1602179055508173ffffffffffffffffffffffffffffffffffffffff168173ffffffffffffffffffffffffffffffffffffffff167f8be0079c531659141344cd1fd0a4f28419497f9722a3daafe3b4186f6b6457e060405160405180910390a35050565b600033905090565b6040518060e00160405280600067ffffffffffffffff191681526020016060815260200160608152602001600081526020016000815260200160608152602001600060ff1681525090565b828054828255906000526020600020908101928215611296579160200282015b828111156112955782518260006101000a81548173ffffffffffffffffffffffffffffffffffffffff021916908373ffffffffffffffffffffffffffffffffffffffff1602179055509160200191906001019061123d565b5b5090506112a391906112a7565b5090565b5b808211156112c05760008160009055506001016112a8565b5090565b60006112d76112d284611a93565b611a62565b905080838252602082019050828560208602820111156112f657600080fd5b60005b85811015611326578161130c8882611330565b8452602084019350602083019250506001810190506112f9565b5050509392505050565b60008135905061133f81611d83565b92915050565b600082601f83011261135657600080fd5b81356113668482602086016112c4565b91505092915050565b60008135905061137e81611d9a565b92915050565b60008135905061139381611db1565b92915050565b6000813590506113a881611dc8565b92915050565b6000602082840312156113c057600080fd5b60006113ce84828501611330565b91505092915050565b6000602082840312156113e957600080fd5b60006113f78482850161136f565b91505092915050565b6000806040838503121561141357600080fd5b60006114218582860161136f565b925050602061143285828601611330565b9150509250929050565b600080600080600060a0868803121561145457600080fd5b60006114628882890161136f565b955050602086013567ffffffffffffffff81111561147f57600080fd5b61148b88828901611345565b945050604061149c88828901611384565b93505060606114ad88828901611384565b92505060806114be88828901611399565b9150509295509295909350565b60006114d783836114e3565b60208301905092915050565b6114ec81611b3d565b82525050565b6114fb81611b3d565b82525050565b600061150c82611acf565b6115168185611ae7565b935061152183611abf565b8060005b8381101561155257815161153988826114cb565b975061154483611ada565b925050600181019050611525565b5085935050505092915050565b61156881611b4f565b82525050565b61157f61157a82611b7b565b611c92565b82525050565b6000611592602683611af8565b91507f4f776e61626c653a206e6577206f776e657220697320746865207a65726f206160008301527f64647265737300000000000000000000000000000000000000000000000000006020830152604082019050919050565b60006115f8602483611af8565b91507f5061727469636970616e742068617320616c726561647920706172746963697060008301527f61746564000000000000000000000000000000000000000000000000000000006020830152604082019050919050565b600061165e601783611af8565b91507f476976656177617920646f6573206e6f742065786973740000000000000000006000830152602082019050919050565b600061169e601983611af8565b91507f4769766561776179206861736e277420656e64656420796574000000000000006000830152602082019050919050565b60006116de602083611af8565b91507f4f776e61626c653a2063616c6c6572206973206e6f7420746865206f776e65726000830152602082019050919050565b600061171e602a83611af8565b91507f4e6f7420656e6f756768207061727469636970616e747320746f2063686f6f7360008301527f6520612077696e6e6572000000000000000000000000000000000000000000006020830152604082019050919050565b6000611784601683611af8565b91507f4769766561776179206973206e6f7420616374697665000000000000000000006000830152602082019050919050565b60006117c4601b83611af8565b91507f4769766561776179206861736e277420737461727465642079657400000000006000830152602082019050919050565b6000611804601e83611af8565b91507f5061727469636970616e74206973206e6f742077686974656c697374656400006000830152602082019050919050565b61184081611bb3565b82525050565b61185761185282611bb3565b611c9c565b82525050565b61186681611bbd565b82525050565b61187d61187882611bbd565b611ca6565b82525050565b600061188f828661156e565b60208201915061189f8285611846565b6020820191506118af828461186c565b600182019150819050949350505050565b60006020820190506118d560008301846114f2565b92915050565b600060208201905081810360008301526118f58184611501565b905092915050565b6000608082019050611912600083018761155f565b61191f6020830186611837565b61192c6040830185611837565b611939606083018461185d565b95945050505050565b6000602082019050818103600083015261195b81611585565b9050919050565b6000602082019050818103600083015261197b816115eb565b9050919050565b6000602082019050818103600083015261199b81611651565b9050919050565b600060208201905081810360008301526119bb81611691565b9050919050565b600060208201905081810360008301526119db816116d1565b9050919050565b600060208201905081810360008301526119fb81611711565b9050919050565b60006020820190508181036000830152611a1b81611777565b9050919050565b60006020820190508181036000830152611a3b816117b7565b9050919050565b60006020820190508181036000830152611a5b816117f7565b9050919050565b6000604051905081810181811067ffffffffffffffff82111715611a8957611a88611d47565b5b8060405250919050565b600067ffffffffffffffff821115611aae57611aad611d47565b5b602082029050602081019050919050565b6000819050602082019050919050565b600081519050919050565b6000602082019050919050565b600082825260208201905092915050565b600082825260208201905092915050565b6000611b1482611bb3565b9150611b1f83611bb3565b925082821015611b3257611b31611ce9565b5b828203905092915050565b6000611b4882611b93565b9050919050565b60007fffffffffffffffffffffffffffffffffffffffffffffffff000000000000000082169050919050565b6000819050919050565b600061ffff82169050919050565b600073ffffffffffffffffffffffffffffffffffffffff82169050919050565b6000819050919050565b600060ff82169050919050565b6000611bd582611b85565b91506000821415611be957611be8611ce9565b5b600182039050919050565b6000611bff82611b85565b915061ffff821415611c1457611c13611ce9565b5b600182019050919050565b6000611c2a82611bb3565b91507fffffffffffffffffffffffffffffffffffffffffffffffffffffffffffffffff821415611c5d57611c5c611ce9565b5b600182019050919050565b6000611c7382611bbd565b915060ff821415611c8757611c86611ce9565b5b600182019050919050565b6000819050919050565b6000819050919050565b6000611cb182611d76565b9050919050565b6000611cc382611bb3565b9150611cce83611bb3565b925082611cde57611cdd611d18565b5b828206905092915050565b7f4e487b7100000000000000000000000000000000000000000000000000000000600052601160045260246000fd5b7f4e487b7100000000000000000000000000000000000000000000000000000000600052601260045260246000fd5b7f4e487b7100000000000000000000000000000000000000000000000000000000600052604160045260246000fd5b60008160f81b9050919050565b611d8c81611b3d565b8114611d9757600080fd5b50565b611da381611b4f565b8114611dae57600080fd5b50565b611dba81611bb3565b8114611dc557600080fd5b50565b611dd181611bbd565b8114611ddc57600080fd5b5056fea26469706673582212207ee7b19f28de73df059603daa6b29d3d7fbe2abd393217aacafdd03e69f52a7d64736f6c63430008000033",
  "immutableReferences": {},
  "source": "// SPDX-License-Identifier: MIT\npragma solidity >=0.8.0;\n\nimport \"@openzeppelin/contracts/access/Ownable.sol\";\n\ncontract Giveaways is Ownable {\n    struct Giveaway {\n        bytes24 id;\n        address[] whitelist;\n        address[] participants;\n        uint256 startTime;\n        uint256 endTime;\n        address[] winners;\n        uint8 nWinners;\n    }\n\n    mapping(bytes24 => Giveaway) public giveaways;\n\n    function createGiveaway(bytes24 id, address[] memory whitelist, uint256 startTime, uint256 endTime, uint8 nWinners) public onlyOwner {\n        Giveaway memory giveaway;\n        giveaway.id = id;\n        giveaway.whitelist = whitelist;\n        giveaway.startTime = startTime;\n        giveaway.endTime = endTime;\n        giveaway.nWinners = nWinners;\n        giveaways[id] = giveaway;\n    }\n\n    function addParticipant(bytes24 giveawayId, address participantAddress) public onlyOwner {\n        Giveaway storage giveaway = giveaways[giveawayId];\n        \n        require(giveaway.id != bytes24(0), \"Giveaway does not exist\");\n        require(block.timestamp >= giveaway.startTime && block.timestamp <= giveaway.endTime, \"Giveaway is not active\");\n        \n        // Check if the participant is whitelisted\n        bool isWhitelisted = false;\n        for (uint i = 0; i < giveaway.whitelist.length; i++) {\n            if (giveaway.whitelist[i] == participantAddress) {\n                isWhitelisted = true;\n                break;\n            }\n        }\n        require(isWhitelisted, \"Participant is not whitelisted\");\n        \n        // Check if the participant has already participated\n        for (uint i = 0; i < giveaway.participants.length; i++) {\n            if (giveaway.participants[i] == participantAddress) {\n                revert(\"Participant has already participated\");\n            }\n        }\n        \n        // Add the participant to the participants array\n        giveaway.participants.push(participantAddress);\n    }\n\n    function generateWinners(bytes24 id) public onlyOwner {\n        Giveaway storage giveaway = giveaways[id];\n        require(giveaway.startTime <= block.timestamp, \"Giveaway hasn't started yet\");\n        require(giveaway.endTime <= block.timestamp, \"Giveaway hasn't ended yet\");\n        require(giveaway.participants.length >= giveaway.nWinners, \"Not enough participants to choose a winner\");\n        \n        address[] memory eligibleParticipants = new address[](giveaway.participants.length);\n        uint16 numberOfEligibleParticipants = 0;\n\n        // add participants to eligible participants list\n        for (uint16 i = 0; i < giveaway.participants.length; i++) {\n            eligibleParticipants[numberOfEligibleParticipants] = giveaway.participants[i];\n            numberOfEligibleParticipants++;\n        }\n\n        // generate winners for eligible participants\n        for (uint8 i = 0; i < giveaway.nWinners; i++) {\n            uint16 randomIndex = uint16(uint256(keccak256(abi.encodePacked(blockhash(block.number - 1), block.timestamp, i))) % numberOfEligibleParticipants);\n            giveaway.winners.push(eligibleParticipants[randomIndex]);\n            \n            // remove winner from eligible participants array\n            numberOfEligibleParticipants--;\n            eligibleParticipants[randomIndex] = eligibleParticipants[numberOfEligibleParticipants];\n        }\n    }\n\n    function getParticipants(bytes24 id) public view onlyOwner returns (address[] memory) {\n        require(giveaways[id].id != bytes24(0), \"Giveaway does not exist\");\n        return giveaways[id].participants;\n    }\n\n    function getWhitelist(bytes24 id) public view onlyOwner returns (address[] memory) {\n        require(giveaways[id].id != bytes24(0), \"Giveaway does not exist\");\n        return giveaways[id].whitelist;\n    }\n\n    function getWinners(bytes24 id) public view onlyOwner returns (address[] memory) {\n        require(giveaways[id].id != bytes24(0), \"Giveaway does not exist\");\n        return giveaways[id].winners;\n    }\n}\n",
  "sourcePath": "/Users/marcia/Documents/web3-roulette/packages/truffle-app/contracts/Giveaways.sol",
  "compiler": {
    "name": "solc",
    "version": "0.8.0+commit.c7dfd78e.Emscripten.clang"
  },
  "schemaVersion": "3.4.13",
  "updatedAt": "2023-04-26T15:54:25.008Z",
  "devdoc": {
    "kind": "dev",
    "methods": {
      "owner()": {
        "details": "Returns the address of the current owner."
      },
      "renounceOwnership()": {
        "details": "Leaves the contract without owner. It will not be possible to call `onlyOwner` functions anymore. Can only be called by the current owner. NOTE: Renouncing ownership will leave the contract without an owner, thereby removing any functionality that is only available to the owner."
      },
      "transferOwnership(address)": {
        "details": "Transfers ownership of the contract to a new account (`newOwner`). Can only be called by the current owner."
      }
    },
    "version": 1
  },
  "userdoc": {
    "kind": "user",
    "methods": {},
    "version": 1
  }
}