{
  "contractName": "Giveaways",
  "abi": [
    {
      "anonymous": false,
      "inputs": [
        {
          "indexed": true,
          "internalType": "address",
          "name": "previousOwner",
          "type": "address"
        },
        {
          "indexed": true,
          "internalType": "address",
          "name": "newOwner",
          "type": "address"
        }
      ],
      "name": "OwnershipTransferred",
      "type": "event"
    },
    {
      "inputs": [
        {
          "internalType": "bytes24",
          "name": "",
          "type": "bytes24"
        }
      ],
      "name": "giveaways",
      "outputs": [
        {
          "internalType": "bytes24",
          "name": "id",
          "type": "bytes24"
        },
        {
          "internalType": "uint256",
          "name": "startTime",
          "type": "uint256"
        },
        {
          "internalType": "uint256",
          "name": "endTime",
          "type": "uint256"
        },
        {
          "internalType": "uint8",
          "name": "nWinners",
          "type": "uint8"
        }
      ],
      "stateMutability": "view",
      "type": "function",
      "constant": true
    },
    {
      "inputs": [],
      "name": "owner",
      "outputs": [
        {
          "internalType": "address",
          "name": "",
          "type": "address"
        }
      ],
      "stateMutability": "view",
      "type": "function",
      "constant": true
    },
    {
      "inputs": [],
      "name": "renounceOwnership",
      "outputs": [],
      "stateMutability": "nonpayable",
      "type": "function"
    },
    {
      "inputs": [
        {
          "internalType": "address",
          "name": "newOwner",
          "type": "address"
        }
      ],
      "name": "transferOwnership",
      "outputs": [],
      "stateMutability": "nonpayable",
      "type": "function"
    },
    {
      "inputs": [
        {
          "internalType": "bytes24",
          "name": "id",
          "type": "bytes24"
        },
        {
          "internalType": "uint256",
          "name": "startTime",
          "type": "uint256"
        },
        {
          "internalType": "uint256",
          "name": "endTime",
          "type": "uint256"
        },
        {
          "internalType": "uint8",
          "name": "nWinners",
          "type": "uint8"
        }
      ],
      "name": "createGiveaway",
      "outputs": [],
      "stateMutability": "nonpayable",
      "type": "function"
    },
    {
      "inputs": [
        {
          "internalType": "bytes24",
          "name": "giveawayId",
          "type": "bytes24"
        },
        {
          "internalType": "string",
          "name": "participant",
          "type": "string"
        }
      ],
      "name": "addParticipant",
      "outputs": [],
      "stateMutability": "nonpayable",
      "type": "function"
    },
    {
      "inputs": [
        {
          "internalType": "bytes24",
          "name": "id",
          "type": "bytes24"
        }
      ],
      "name": "generateWinners",
      "outputs": [],
      "stateMutability": "nonpayable",
      "type": "function"
    },
    {
      "inputs": [
        {
          "internalType": "bytes24",
          "name": "id",
          "type": "bytes24"
        }
      ],
      "name": "getParticipants",
      "outputs": [
        {
          "internalType": "string[]",
          "name": "",
          "type": "string[]"
        }
      ],
      "stateMutability": "view",
      "type": "function",
      "constant": true
    },
    {
      "inputs": [
        {
          "internalType": "bytes24",
          "name": "id",
          "type": "bytes24"
        }
      ],
      "name": "getWinners",
      "outputs": [
        {
          "internalType": "string[]",
          "name": "",
          "type": "string[]"
        }
      ],
      "stateMutability": "view",
      "type": "function",
      "constant": true
    }
  ],
  "bytecode": "0x608060405234801561001057600080fd5b5061002d61002261003260201b60201c565b61003a60201b60201c565b6100fe565b600033905090565b60008060009054906101000a900473ffffffffffffffffffffffffffffffffffffffff169050816000806101000a81548173ffffffffffffffffffffffffffffffffffffffff021916908373ffffffffffffffffffffffffffffffffffffffff1602179055508173ffffffffffffffffffffffffffffffffffffffff168173ffffffffffffffffffffffffffffffffffffffff167f8be0079c531659141344cd1fd0a4f28419497f9722a3daafe3b4186f6b6457e060405160405180910390a35050565b611dbc8061010d6000396000f3fe608060405234801561001057600080fd5b50600436106100925760003560e01c80638da5cb5b116100665780638da5cb5b146101095780639870cc5114610127578063ea7e58501461015a578063ed585f6414610176578063f2fde38b146101a657610092565b8062b3bc57146100975780633c4288fe146100b3578063580d0f3e146100e3578063715018a6146100ff575b600080fd5b6100b160048036038101906100ac91906111e3565b6101c2565b005b6100cd60048036038101906100c891906111e3565b61065e565b6040516100da91906117ae565b60405180910390f35b6100fd60048036038101906100f89190611260565b6107f9565b005b61010761092c565b005b610111610940565b60405161011e9190611793565b60405180910390f35b610141600480360381019061013c91906111e3565b610969565b60405161015194939291906117d0565b60405180910390f35b610174600480360381019061016f919061120c565b6109b3565b005b610190600480360381019061018b91906111e3565b610bea565b60405161019d91906117ae565b60405180910390f35b6101c060048036038101906101bb91906111ba565b610d85565b005b6101ca610e09565b6000600160008367ffffffffffffffff191667ffffffffffffffff191681526020019081526020016000209050428160020154111561023e576040517f08c379a0000000000000000000000000000000000000000000000000000000008152600401610235906118f5565b60405180910390fd5b4281600301541115610285576040517f08c379a000000000000000000000000000000000000000000000000000000000815260040161027c90611875565b60405180910390fd5b8060050160009054906101000a900460ff1660ff16816001018054905010156102e3576040517f08c379a00000000000000000000000000000000000000000000000000000000081526004016102da906118b5565b60405180910390fd5b6000816001018054905067ffffffffffffffff81111561032c577f4e487b7100000000000000000000000000000000000000000000000000000000600052604160045260246000fd5b60405190808252806020026020018201604052801561035f57816020015b606081526020019060019003908161034a5790505b5090506000805b83600101805490508161ffff1610156104b557836001018161ffff16815481106103b9577f4e487b7100000000000000000000000000000000000000000000000000000000600052603260045260246000fd5b9060005260206000200180546103ce90611b29565b80601f01602080910402602001604051908101604052809291908181526020018280546103fa90611b29565b80156104475780601f1061041c57610100808354040283529160200191610447565b820191906000526020600020905b81548152906001019060200180831161042a57829003601f168201915b5050505050838361ffff1681518110610489577f4e487b7100000000000000000000000000000000000000000000000000000000600052603260045260246000fd5b6020026020010181905250818061049f90611b5b565b92505080806104ad90611b5b565b915050610366565b5060005b8360050160009054906101000a900460ff1660ff168160ff1610156106575760008261ffff166001436104ec91906119fc565b40428460405160200161050193929190611728565b6040516020818303038152906040528051906020012060001c6105249190611c1f565b905084600401848261ffff1681518110610567577f4e487b7100000000000000000000000000000000000000000000000000000000600052603260045260246000fd5b60200260200101519080600181540180825580915050600190039060005260206000200160009091909190915090805190602001906105a7929190610f53565b5082806105b390611aff565b935050838361ffff16815181106105f3577f4e487b7100000000000000000000000000000000000000000000000000000000600052603260045260246000fd5b6020026020010151848261ffff1681518110610638577f4e487b7100000000000000000000000000000000000000000000000000000000600052603260045260246000fd5b602002602001018190525050808061064f90611bcf565b9150506104b9565b5050505050565b6060600060401b67ffffffffffffffff1916600160008467ffffffffffffffff191667ffffffffffffffff1916815260200190815260200160002060000160009054906101000a900460401b67ffffffffffffffff191614156106f6576040517f08c379a00000000000000000000000000000000000000000000000000000000081526004016106ed90611855565b60405180910390fd5b600160008367ffffffffffffffff191667ffffffffffffffff19168152602001908152602001600020600101805480602002602001604051908101604052809291908181526020016000905b828210156107ee57838290600052602060002001805461076190611b29565b80601f016020809104026020016040519081016040528092919081815260200182805461078d90611b29565b80156107da5780601f106107af576101008083540402835291602001916107da565b820191906000526020600020905b8154815290600101906020018083116107bd57829003601f168201915b505050505081526020019060010190610742565b505050509050919050565b610801610e09565b610809610fd9565b84816000019067ffffffffffffffff1916908167ffffffffffffffff1916815250508381604001818152505082816060018181525050818160a0019060ff16908160ff168152505080600160008767ffffffffffffffff191667ffffffffffffffff1916815260200190815260200160002060008201518160000160006101000a81548177ffffffffffffffffffffffffffffffffffffffffffffffff021916908360401c021790555060208201518160010190805190602001906108cf92919061101d565b506040820151816002015560608201518160030155608082015181600401908051906020019061090092919061101d565b5060a08201518160050160006101000a81548160ff021916908360ff1602179055509050505050505050565b610934610e09565b61093e6000610e87565b565b60008060009054906101000a900473ffffffffffffffffffffffffffffffffffffffff16905090565b60016020528060005260406000206000915090508060000160009054906101000a900460401b908060020154908060030154908060050160009054906101000a900460ff16905084565b6109bb610e09565b6000600160008467ffffffffffffffff191667ffffffffffffffff191681526020019081526020016000209050600060401b67ffffffffffffffff19168160000160009054906101000a900460401b67ffffffffffffffff19161415610a56576040517f08c379a0000000000000000000000000000000000000000000000000000000008152600401610a4d90611855565b60405180910390fd5b80600201544210158015610a6e575080600301544211155b610aad576040517f08c379a0000000000000000000000000000000000000000000000000000000008152600401610aa4906118d5565b60405180910390fd5b60005b8160010180549050811015610ba65782604051602001610ad09190611765565b60405160208183030381529060405280519060200120826001018281548110610b22577f4e487b7100000000000000000000000000000000000000000000000000000000600052603260045260246000fd5b90600052602060002001604051602001610b3c919061177c565b604051602081830303815290604052805190602001201415610b93576040517f08c379a0000000000000000000000000000000000000000000000000000000008152600401610b8a90611835565b60405180910390fd5b8080610b9e90611b86565b915050610ab0565b508060010182908060018154018082558091505060019003906000526020600020016000909190919091509080519060200190610be4929190610f53565b50505050565b6060600060401b67ffffffffffffffff1916600160008467ffffffffffffffff191667ffffffffffffffff1916815260200190815260200160002060000160009054906101000a900460401b67ffffffffffffffff19161415610c82576040517f08c379a0000000000000000000000000000000000000000000000000000000008152600401610c7990611855565b60405180910390fd5b600160008367ffffffffffffffff191667ffffffffffffffff19168152602001908152602001600020600401805480602002602001604051908101604052809291908181526020016000905b82821015610d7a578382906000526020600020018054610ced90611b29565b80601f0160208091040260200160405190810160405280929190818152602001828054610d1990611b29565b8015610d665780601f10610d3b57610100808354040283529160200191610d66565b820191906000526020600020905b815481529060010190602001808311610d4957829003601f168201915b505050505081526020019060010190610cce565b505050509050919050565b610d8d610e09565b600073ffffffffffffffffffffffffffffffffffffffff168173ffffffffffffffffffffffffffffffffffffffff161415610dfd576040517f08c379a0000000000000000000000000000000000000000000000000000000008152600401610df490611815565b60405180910390fd5b610e0681610e87565b50565b610e11610f4b565b73ffffffffffffffffffffffffffffffffffffffff16610e2f610940565b73ffffffffffffffffffffffffffffffffffffffff1614610e85576040517f08c379a0000000000000000000000000000000000000000000000000000000008152600401610e7c90611895565b60405180910390fd5b565b60008060009054906101000a900473ffffffffffffffffffffffffffffffffffffffff169050816000806101000a81548173ffffffffffffffffffffffffffffffffffffffff021916908373ffffffffffffffffffffffffffffffffffffffff1602179055508173ffffffffffffffffffffffffffffffffffffffff168173ffffffffffffffffffffffffffffffffffffffff167f8be0079c531659141344cd1fd0a4f28419497f9722a3daafe3b4186f6b6457e060405160405180910390a35050565b600033905090565b828054610f5f90611b29565b90600052602060002090601f016020900481019282610f815760008555610fc8565b82601f10610f9a57805160ff1916838001178555610fc8565b82800160010185558215610fc8579182015b82811115610fc7578251825591602001919060010190610fac565b5b509050610fd5919061107d565b5090565b6040518060c00160405280600067ffffffffffffffff1916815260200160608152602001600081526020016000815260200160608152602001600060ff1681525090565b82805482825590600052602060002090810192821561106c579160200282015b8281111561106b57825182908051906020019061105b929190610f53565b509160200191906001019061103d565b5b509050611079919061109a565b5090565b5b8082111561109657600081600090555060010161107e565b5090565b5b808211156110ba57600081816110b191906110be565b5060010161109b565b5090565b5080546110ca90611b29565b6000825580601f106110dc57506110fb565b601f0160209004906000526020600020908101906110fa919061107d565b5b50565b600061111161110c84611946565b611915565b90508281526020810184848401111561112957600080fd5b611134848285611abd565b509392505050565b60008135905061114b81611d2a565b92915050565b60008135905061116081611d41565b92915050565b600082601f83011261117757600080fd5b81356111878482602086016110fe565b91505092915050565b60008135905061119f81611d58565b92915050565b6000813590506111b481611d6f565b92915050565b6000602082840312156111cc57600080fd5b60006111da8482850161113c565b91505092915050565b6000602082840312156111f557600080fd5b600061120384828501611151565b91505092915050565b6000806040838503121561121f57600080fd5b600061122d85828601611151565b925050602083013567ffffffffffffffff81111561124a57600080fd5b61125685828601611166565b9150509250929050565b6000806000806080858703121561127657600080fd5b600061128487828801611151565b945050602061129587828801611190565b93505060406112a687828801611190565b92505060606112b7878288016111a5565b91505092959194509250565b60006112cf8383611381565b905092915050565b6112e081611a30565b82525050565b60006112f18261199b565b6112fb81856119be565b93508360208202850161130d85611976565b8060005b85811015611349578484038952815161132a85826112c3565b9450611335836119b1565b925060208a01995050600181019050611311565b50829750879550505050505092915050565b61136481611a42565b82525050565b61137b61137682611a6e565b611bf9565b82525050565b600061138c826119a6565b61139681856119cf565b93506113a6818560208601611acc565b6113af81611d0c565b840191505092915050565b60006113c5826119a6565b6113cf81856119f1565b93506113df818560208601611acc565b80840191505092915050565b600081546113f881611b29565b61140281866119f1565b9450600182166000811461141d576001811461142e57611461565b60ff19831686528186019350611461565b61143785611986565b60005b838110156114595781548189015260018201915060208101905061143a565b838801955050505b50505092915050565b60006114776026836119e0565b91507f4f776e61626c653a206e6577206f776e657220697320746865207a65726f206160008301527f64647265737300000000000000000000000000000000000000000000000000006020830152604082019050919050565b60006114dd6024836119e0565b91507f5061727469636970616e742068617320616c726561647920706172746963697060008301527f61746564000000000000000000000000000000000000000000000000000000006020830152604082019050919050565b60006115436017836119e0565b91507f476976656177617920646f6573206e6f742065786973740000000000000000006000830152602082019050919050565b60006115836019836119e0565b91507f4769766561776179206861736e277420656e64656420796574000000000000006000830152602082019050919050565b60006115c36020836119e0565b91507f4f776e61626c653a2063616c6c6572206973206e6f7420746865206f776e65726000830152602082019050919050565b6000611603602a836119e0565b91507f4e6f7420656e6f756768207061727469636970616e747320746f2063686f6f7360008301527f6520612077696e6e6572000000000000000000000000000000000000000000006020830152604082019050919050565b60006116696016836119e0565b91507f4769766561776179206973206e6f7420616374697665000000000000000000006000830152602082019050919050565b60006116a9601b836119e0565b91507f4769766561776179206861736e277420737461727465642079657400000000006000830152602082019050919050565b6116e581611aa6565b82525050565b6116fc6116f782611aa6565b611c03565b82525050565b61170b81611ab0565b82525050565b61172261171d82611ab0565b611c0d565b82525050565b6000611734828661136a565b60208201915061174482856116eb565b6020820191506117548284611711565b600182019150819050949350505050565b600061177182846113ba565b915081905092915050565b600061178882846113eb565b915081905092915050565b60006020820190506117a860008301846112d7565b92915050565b600060208201905081810360008301526117c881846112e6565b905092915050565b60006080820190506117e5600083018761135b565b6117f260208301866116dc565b6117ff60408301856116dc565b61180c6060830184611702565b95945050505050565b6000602082019050818103600083015261182e8161146a565b9050919050565b6000602082019050818103600083015261184e816114d0565b9050919050565b6000602082019050818103600083015261186e81611536565b9050919050565b6000602082019050818103600083015261188e81611576565b9050919050565b600060208201905081810360008301526118ae816115b6565b9050919050565b600060208201905081810360008301526118ce816115f6565b9050919050565b600060208201905081810360008301526118ee8161165c565b9050919050565b6000602082019050818103600083015261190e8161169c565b9050919050565b6000604051905081810181811067ffffffffffffffff8211171561193c5761193b611cdd565b5b8060405250919050565b600067ffffffffffffffff82111561196157611960611cdd565b5b601f19601f8301169050602081019050919050565b6000819050602082019050919050565b60008190508160005260206000209050919050565b600081519050919050565b600081519050919050565b6000602082019050919050565b600082825260208201905092915050565b600082825260208201905092915050565b600082825260208201905092915050565b600081905092915050565b6000611a0782611aa6565b9150611a1283611aa6565b925082821015611a2557611a24611c50565b5b828203905092915050565b6000611a3b82611a86565b9050919050565b60007fffffffffffffffffffffffffffffffffffffffffffffffff000000000000000082169050919050565b6000819050919050565b600061ffff82169050919050565b600073ffffffffffffffffffffffffffffffffffffffff82169050919050565b6000819050919050565b600060ff82169050919050565b82818337600083830152505050565b60005b83811015611aea578082015181840152602081019050611acf565b83811115611af9576000848401525b50505050565b6000611b0a82611a78565b91506000821415611b1e57611b1d611c50565b5b600182039050919050565b60006002820490506001821680611b4157607f821691505b60208210811415611b5557611b54611cae565b5b50919050565b6000611b6682611a78565b915061ffff821415611b7b57611b7a611c50565b5b600182019050919050565b6000611b9182611aa6565b91507fffffffffffffffffffffffffffffffffffffffffffffffffffffffffffffffff821415611bc457611bc3611c50565b5b600182019050919050565b6000611bda82611ab0565b915060ff821415611bee57611bed611c50565b5b600182019050919050565b6000819050919050565b6000819050919050565b6000611c1882611d1d565b9050919050565b6000611c2a82611aa6565b9150611c3583611aa6565b925082611c4557611c44611c7f565b5b828206905092915050565b7f4e487b7100000000000000000000000000000000000000000000000000000000600052601160045260246000fd5b7f4e487b7100000000000000000000000000000000000000000000000000000000600052601260045260246000fd5b7f4e487b7100000000000000000000000000000000000000000000000000000000600052602260045260246000fd5b7f4e487b7100000000000000000000000000000000000000000000000000000000600052604160045260246000fd5b6000601f19601f8301169050919050565b60008160f81b9050919050565b611d3381611a30565b8114611d3e57600080fd5b50565b611d4a81611a42565b8114611d5557600080fd5b50565b611d6181611aa6565b8114611d6c57600080fd5b50565b611d7881611ab0565b8114611d8357600080fd5b5056fea26469706673582212209138535624c7dc2e419c731a33bb354093d1dffab9a33befd6fbe23eb668603264736f6c63430008000033",
  "immutableReferences": {},
  "source": "// SPDX-License-Identifier: MIT\npragma solidity >=0.8.0;\n\nimport '@openzeppelin/contracts/access/Ownable.sol';\n\ncontract Giveaways is Ownable {\n    struct Giveaway {\n        bytes24 id;\n        string[] participants;\n        uint256 startTime;\n        uint256 endTime;\n        string[] winners;\n        uint8 nWinners;\n    }\n\n    mapping(bytes24 => Giveaway) public giveaways;\n\n    function createGiveaway(\n        bytes24 id,\n        uint256 startTime,\n        uint256 endTime,\n        uint8 nWinners\n    ) public onlyOwner {\n        Giveaway memory giveaway;\n        giveaway.id = id;\n        giveaway.startTime = startTime;\n        giveaway.endTime = endTime;\n        giveaway.nWinners = nWinners;\n        giveaways[id] = giveaway;\n    }\n\n    function addParticipant(\n        bytes24 giveawayId,\n        string memory participant\n    ) public onlyOwner {\n        Giveaway storage giveaway = giveaways[giveawayId];\n\n        require(giveaway.id != bytes24(0), 'Giveaway does not exist');\n        require(\n            block.timestamp >= giveaway.startTime &&\n                block.timestamp <= giveaway.endTime,\n            'Giveaway is not active'\n        );\n\n        // Check if the participant has already participated\n        for (uint i = 0; i < giveaway.participants.length; i++) {\n            if (\n                keccak256(abi.encodePacked(giveaway.participants[i])) ==\n                keccak256(abi.encodePacked(participant))\n            ) {\n                revert('Participant has already participated');\n            }\n        }\n\n        // Add the participant to the participants array\n        giveaway.participants.push(participant);\n    }\n\n    function generateWinners(bytes24 id) public onlyOwner {\n        Giveaway storage giveaway = giveaways[id];\n\n        require(\n            giveaway.startTime <= block.timestamp,\n            \"Giveaway hasn't started yet\"\n        );\n        require(\n            giveaway.endTime <= block.timestamp,\n            \"Giveaway hasn't ended yet\"\n        );\n        require(\n            giveaway.participants.length >= giveaway.nWinners,\n            'Not enough participants to choose a winner'\n        );\n\n        string[] memory eligibleParticipants = new string[](\n            giveaway.participants.length\n        );\n        uint16 numberOfEligibleParticipants = 0;\n\n        // add participants to eligible participants list\n        for (uint16 i = 0; i < giveaway.participants.length; i++) {\n            eligibleParticipants[numberOfEligibleParticipants] = giveaway\n                .participants[i];\n            numberOfEligibleParticipants++;\n        }\n\n        // generate winners for eligible participants\n        for (uint8 i = 0; i < giveaway.nWinners; i++) {\n            uint16 randomIndex = uint16(\n                uint256(\n                    keccak256(\n                        abi.encodePacked(\n                            blockhash(block.number - 1),\n                            block.timestamp,\n                            i\n                        )\n                    )\n                ) % numberOfEligibleParticipants\n            );\n            giveaway.winners.push(eligibleParticipants[randomIndex]);\n\n            // remove winner from eligible participants array\n            numberOfEligibleParticipants--;\n            eligibleParticipants[randomIndex] = eligibleParticipants[\n                numberOfEligibleParticipants\n            ];\n        }\n    }\n\n    function getParticipants(bytes24 id) public view returns (string[] memory) {\n        require(giveaways[id].id != bytes24(0), 'Giveaway does not exist');\n        return giveaways[id].participants;\n    }\n\n    function getWinners(bytes24 id) public view returns (string[] memory) {\n        require(giveaways[id].id != bytes24(0), 'Giveaway does not exist');\n        return giveaways[id].winners;\n    }\n}\n",
  "sourcePath": "/Users/marcia/Documents/web3-roulette/packages/truffle-app/contracts/Giveaways.sol",
  "compiler": {
    "name": "solc",
    "version": "0.8.0+commit.c7dfd78e.Emscripten.clang"
  },
  "schemaVersion": "3.4.13",
  "updatedAt": "2023-05-19T12:47:53.079Z",
  "networkType": "ethereum",
  "devdoc": {
    "kind": "dev",
    "methods": {
      "owner()": {
        "details": "Returns the address of the current owner."
      },
      "renounceOwnership()": {
        "details": "Leaves the contract without owner. It will not be possible to call `onlyOwner` functions anymore. Can only be called by the current owner. NOTE: Renouncing ownership will leave the contract without an owner, thereby removing any functionality that is only available to the owner."
      },
      "transferOwnership(address)": {
        "details": "Transfers ownership of the contract to a new account (`newOwner`). Can only be called by the current owner."
      }
    },
    "version": 1
  },
  "userdoc": {
    "kind": "user",
    "methods": {},
    "version": 1
  }
}